:020000022000DC
:1070000000000420F97202002173020023730200C1
:10701000257302002773020029730200000000009C
:107020000000000000000000000000002B730200C0
:107030002D730200000000002F7302003173020064
:1070400075AB020033730200A9B40200337302006F
:107050003373020033730200A5AF020019790300F5
:107060003373020033730200337302003373020080
:107070003373020033730200337302003373020070
:1070800033730200F1950200337302003373020080
:1070900033730200337302008DFA0200337302006F
:1070A0003373020033730200337302003373020040
:1070B000E101030033730200000000000000000043
:1070C0003373020033730200337302003373020020
:1070D0003373020033730200337302003373020010
:1070E000337302003373020025B403000000000074
:1070F0000000000033730200000000003373020040
:10710000000000000000000000000000000000007F
:10711000000000000000000000000000000000006F
:10712000000000000000000000000000000000005F
:10713000000000000000000000000000000000004F
:10714000000000000000000000000000000000003F
:10715000000000000000000000000000000000002F
:10716000000000000000000000000000000000001F
:10717000000000000000000000000000000000000F
:1071800000000000000000000000000000000000FF
:1071900000000000000000000000000000000000EF
:1071A00000000000000000000000000000000000DF
:1071B00000000000000000000000000000000000CF
:1071C00000000000000000000000000000000000BF
:1071D00000000000000000000000000000000000AF
:1071E000000000000000000000000000000000009F
:1071F000000000000000000000000000000000008F
:107200000348044B834202D0034B03B11847704735
:107210004833002048330020000000000548064B9A
:107220001B1AD90F01EBA301491002D0034B03B184
:107230001847704748330020483300200000000002
:1072400010B5064C237843B9FFF7DAFF044B13B1AE
:107250000448AFF300800123237010BD7033002079
:1072600000000000ECA6040008B5044B1BB1044963
:107270000448AFF30080BDE80840CFE700000000FD
:1072800074330020ECA60400A3F5803A704700BFD9
:10729000154B002B08BF114B9D46FFF7F5FF002152
:1072A0008B460F461148124A121A18F005F90C4B7A
:1072B000002B00D098470B4B002B00D098470020A4
:1072C000002104000D000B4817F040FF17F078FF75
:1072D0002000290006F0ACF917F046FF0000080076
:1072E00000000000000000000000042070330020B7
:1072F0002086002091F103000649074A074B9B1A9C
:1073000003DD043BC858D050FBDC03F065F9FFF700
:10731000BFFF000084A8040000300020703300206C
:10732000FEE7FEE7FEE7FEE7FEE7FEE7FEE7FEE735
:10733000FEE7FEE7704700BF00B583B0044B009343
:10734000044A402300F03AF803B05DF804FB00BFA4
:10735000597302008C33002022B32DE9F843134BFC
:10736000134E88461446032743F0010900252246A0
:1073700008EB0501002006F0F7FB034601224FF45D
:107380007A40E41A1D4443B933784BB1C847013FF2
:107390004FF0010307D03370E9E73270002CE6D1DB
:1073A000BDE8F88370473770BDE8F883B048040043
:1073B000CC330020704700BF06F0AABCF0B595B0F2
:1073C000084600240E4617461D4602F04DFF1A9A45
:1073D0000D922346082205A93046CDE909540897A5
:1073E0008DF82C400C9402F0A3FFDDE906219DF8F6
:1073F00014308DF81140CDE9021203F00302012A86
:1074000028D0022A04D0304602F032FF15B0F0BD79
:10741000BDF81650C3F3C203C5F389158DF81030BB
:107420000827082D2C4628BF08243B4622460EA9D3
:10743000304602F07DFF2D1B08AB02AA21460EA8A4
:10744000274401F02FF9002DEBD1304602F010FF58
:1074500015B0F0BDBDF814100598C1F38312C3F345
:10746000C203C0F39525C1F383148DF810300EA923
:1074700030469200082302F05BFF08AB00932246DF
:1074800002AB0EA9284601F097F8304602F0F0FE54
:1074900015B0F0BD08B5FFF78FFF0448042101F0D7
:1074A00009F8034B01225A7108BD00BF6CA8040003
:1074B00000300020064B074810B500221A7002F079
:1074C00085FE044610B9044802F0A8FF204610BD0E
:1074D000D033002070A70400EC48040030B499B108
:1074E0000D490E4D491BC90813D00D4C002302E075
:1074F000013399420AD034F823208242F8D1184649
:1075000055F8300030BC7047044DF9E7002030BC1E
:1075100070470846F6E700BF6CA804008CA704007B
:1075200070330020094B013903EBC00303290BD84A
:10753000DFE801F0040208060420704702207047CB
:107540005879704718797047002070478CA704005D
:10755000704700BF30B5154B1B7883B00446FBB9AC
:1075600000B318F04DFF411C0091114801236A46F9
:1075700001A902F061FF0546A0B9009A01982146D1
:1075800017F084FEDDE900231344094803F8015C89
:10759000009902F08FFF0099054802F0A5FF0198BD
:1075A00003B030BD002003B030BD00BFD033002099
:1075B000EC4804002DE9F0438B4CD4E901239A42B6
:1075C00085B05DD00023C4F81834BFF34F8FA56891
:1075D000EAB2D31C04EB830014F82330590718D502
:1075E0006668037803F00303012B42D0022B03D11A
:1075F0004388023505EB9315EAB2D4F81814D31C6E
:1076000004EB830029B9AE4239D914F823305B0763
:10761000E7D404EB82026B1CDBB2D26804EB830379
:1076200002F00301DB680229CDE9012305F102061E
:107630002AD0012900F08A80D4F810543DB12B687B
:1076400028469B689847EB681D68002DF7D167486E
:10765000674B6849C01AC008000440F0020000F0FF
:1076600053FED4E90130C01A18BF012005B0BDE8AF
:10767000F08303880235C3F383131D44BCE7A6607F
:10768000002005B0BDE8F083BDF806305A48C3F3CA
:1076900089184546502D28BF502565F38F1305F1F5
:1076A0000801ADF8063002F093FD07460028C3D06C
:1076B00002F0DAFD0023082201A9384602F004FE98
:1076C000F343DBB20133B5EB830F4FEA83097FD974
:1076D000F1B2A5EB0905033104EB81014A463846B6
:1076E0000823EDB202F0F0FD444909F108032A46EF
:1076F000384602F0E9FD08F1030806EB9806D4F8D5
:107700001834D4F81054002B5ED165B1EB685A7967
:1077100028463946002A65D02B681B689847EB68D5
:107720001D68002DF2D1384602F0A2FD00230DF1B4
:1077300003008DF8033001F0BBFDD4F8183403B911
:10774000A6609DF8030001F0D9FD8AE7BDF804208A
:107750002948C2F38313062B28BF062363F389123B
:10776000023303F00F018900ADF8042002F030FD70
:10777000074600283FF460AF02F076FD00230822A0
:1077800001A9384602F0A0FDBDF8043013F4707F63
:10779000B5D06FF001094FF00808A9EB0509F1B267
:1077A00003314346042204EB8101384602F08CFD8C
:1077B000BDF804300136C3F3831309EB060293428C
:1077C00008F10408EBD89AE7384602F051FD48E783
:1077D000F1B203312A4604EB81010823384602F056
:1077E00073FD88E71D6890E7D0330020B4A704003C
:1077F0008CA70400D448040070A70400DC330020E8
:107800002DE9F04F89B0DFF8F4B1009000230DF1BD
:10781000130002F1030A8DF813309146039101F031
:1078200047FDDBF80830DBF804704FEA9A0A03F5ED
:1078300080730AF10206DB1B9E4240F2D880CDE93C
:1078400001790BF21C450BF583680BF2144418E028
:10785000BDF81630C3F3891303333F0C09EB9309CA
:10786000204602F069F8394608B1CBF8089028465E
:1078700002F032F8DBE9012303F580739B1A9E4284
:1078800055D90121284602F027F8404602F048F871
:10789000204602F045F8DBF80830DAB2D11C0BEBD9
:1078A000810C1BF8211001F00400490720D40BEBD8
:1078B000820103F10209C86805900133DBB20BEBCA
:1078C000830300F003000128DF6829D00228BFD01D
:1078D0000027C5E7BCF8023007EB9313DAB2D11CDE
:1078E0000BEB810C1BF8210000F004000028DED017
:1078F0009CF8001001F0030101290AD0022903F1CC
:10790000020702F10301E5D00BEB810C0028EFD157
:10791000CDE7BCF800200233C2F383121344DDE745
:10792000BDF81430C3F383133F0C994498E7DDE9A5
:107930000179D3B20333164406226AF39F524BF8FF
:1079400023209DF81300CBF8046001F0D7FCBB1C8A
:10795000DBB2C3F58071B9EB810F4FEA810403F10B
:10796000030335D803990BEB83004A4617F08EFCCE
:107970000021204801F076FF80F31000009C7B1C62
:10798000DBB20BEB8303FAB2210C033241EA004174
:10799000D960E3005BF8221003F0380343F00203E0
:1079A00043EA895301F47C110B434BF822309BF8D6
:1079B000003023B9FFF7CCFD09B0BDE8F08FFFF729
:1079C000F9FD0028F6D0FFF7F5FD0028F7D1F1E723
:1079D000039D224629460BEB830017F057FC2946EE
:1079E0002144A9EB0402044817F050FCC0E73A46D2
:1079F0009FE700BFEC370020DC330020D0330020AD
:107A00002DE9F04F89B0DFF8DCB101930646002381
:107A10000DF113008DF813308946924601F048FCB1
:107A2000DBF80830DBF8047003F58073DB1B062BF2
:107A300000F2D380CDE902760BF21C450BF583688A
:107A40000BF214441AE0BDF81620C2F38912033277
:107A5000360C07EB9207204601F06EFF08B1CBF819
:107A600008703146284601F037FFDBF80830DBF8B4
:107A7000042003F580739B1A062B55D80121284654
:107A800001F02AFF404601F04BFF204601F048FF7D
:107A9000DBF80870F9B2CA1C0BEB820C1BF8222031
:107AA000530702F0040020D40BEB8101CA68059251
:107AB000791CC9B202F003020BEB8101012ACE68E6
:107AC00007F1020729D0022ABDD00026C3E7BCF87F
:107AD000027002EB9717F9B2CB1C0BEB830C1BF86F
:107AE000230000F004000028DED09CF8003003F0F2
:107AF0000303012B0AD0022B07F1020201F1030359
:107B0000E5D00BEB830C0028EFD1CDE7BCF80030BB
:107B10000237C3F383131F44DDE7BDF81420C2F31B
:107B20008312360C174496E7DDE90276D3B20333AD
:107B300040F245114BF8231007329DF81300CBF8A3
:107B4000042001F0DBFBBB1CDBB20BEB8303019ACF
:107B5000C3F80CA0FB1CDBB20BEB83030021DA6043
:107B60003B1DDBB20BEB8303129ADA607B1DDBB2A9
:107B70000BEB8303139ADA60BB1DDBB20BEB8303C1
:107B8000149A1748DA6001F06DFE80F31001F300DB
:107B900003F0380343F4A07343F00103781C43EA75
:107BA0008922C0B2FBB2033309040BEB800041EA27
:107BB0001641C1604BF823209BF8003023B9FFF732
:107BC000C7FC09B0BDE8F08FFFF7F4FC0028F6D041
:107BD000FFF7F0FC0028F7D1F1E73A46A6E700BF2F
:107BE000EC370020D03300202DE9F04F89B0DFF8CA
:107BF000CCB10193064600230DF113008DF813302C
:107C00008946924601F054FBDBF80830DBF804703B
:107C100003F58073DB1B052B00F2CB80CDE90276E8
:107C20000BF21C450BF583680BF2144418E0BDF809
:107C30001620C2F389120332360C07EB9207204656
:107C400001F07AFE08B1CBF808703146284601F001
:107C500043FEDBE9012303F580739B1A052B55D8FE
:107C60000121284601F038FE404601F059FE204629
:107C700001F056FEDBF80870F9B2CA1C0BEB820C5F
:107C80001BF82220530702F0040020D40BEB8101E3
:107C9000CA680592791CC9B202F003020BEB81019C
:107CA000012ACE6807F1020729D0022ABFD0002698
:107CB000C5E7BCF8027002EB9717F9B2CB1C0BEBCF
:107CC000830C1BF8230000F004000028DED09CF891
:107CD000003003F00303012B0AD0022B07F102024C
:107CE00001F10303E5D00BEB830C0028EFD1CDE7C6
:107CF000BCF800300237C3F383131F44DDE7BDF83F
:107D00001420C2F38312360C174498E7DDE902769B
:107D1000D3B2033340F205114BF8231006329DF81D
:107D20001300CBF8042001F0E9FABB1CDBB20BEB2B
:107D30008303019AC3F80CA0FB1CDBB20BEB83039B
:107D40000021DA603B1DDBB20BEB8303129ADA6091
:107D50007B1DDBB20BEB8303139A1748DA6001F04B
:107D600081FD80F31001F30003F03803781C43F425
:107D70008073C0B2FAB2090443F001030BEB800038
:107D8000033243EA892341EA1641C1604BF82230AD
:107D90009BF8003023B9FFF7DBFB09B0BDE8F08F9B
:107DA000FFF708FC0028F6D0FFF704FC0028F7D105
:107DB000F1E73A46ACE700BFEC370020D0330020B3
:107DC0002DE9F04F89B0DFF8B8B1019306460023E2
:107DD0000DF113008DF813308946924601F068FAD0
:107DE000DBF80830DBF8047003F58073DB1B042B31
:107DF00000F2C180CDE902760BF21C450BF58368D9
:107E00000BF2144418E0BDF81630C3F389130333A2
:107E1000360C07EB9307204601F08EFD314608B182
:107E2000CBF80870284601F057FDDBE9012303F584
:107E300080739B1A042B54D80121284601F04CFD75
:107E4000404601F06DFD204601F06AFDDBF8083088
:107E5000DAB2D11C0BEB810C1BF8211001F00400ED
:107E600049071FD40BEB82019F1CC86805900133A2
:107E7000DBB20BEB830300F003000128DE6829D09E
:107E80000228C0D00026C6E7BCF8023006EB9313E8
:107E9000DAB2D11C0BEB810C1BF8210000F00400BE
:107EA0000028DFD09CF8001001F0030101290AD05E
:107EB000022903F1020602F10301E5D00BEB810C6C
:107EC0000028EFD1CEE7BCF800200233C2F38312C2
:107ED0001344DDE7BDF81430C3F38313360C1F449D
:107EE00099E7DDE90276D3B20333C5214BF82310BD
:107EF00005329DF81300CBF8042001F0FFF9BB1CFC
:107F0000DBB20BEB8303019AC3F80CA0FB1CDBB2C2
:107F10000BEB83030021DA603B1DDBB20BEB830329
:107F2000129A1648DA6001F09DFC80F31001F2000D
:107F3000781C02F03802C0B2FBB20333090442F0ED
:107F4000C1020BEB800041EA164142EA8922C1607E
:107F50004BF823209BF8003023B9FFF7F9FA09B05A
:107F6000BDE8F08FFFF726FB0028F6D0FFF722FBD5
:107F70000028F7D1F1E73A46B5E700BFEC3700201B
:107F8000D03300202DE9F04FDFF8BCB189B00024D8
:107F900006460DF113000193894692468DF8134071
:107FA00001F086F9DBF80830DBF8047003F5807324
:107FB000DB1B032B00F2C480CDE902760BF21C45DB
:107FC0000BF583680BF2144419E0BDF81620C2F3D8
:107FD00089120332360C07EB9207204601F0ACFC05
:107FE0003146002839D02846CBF8087001F074FCDF
:107FF000DBE9012303F580739B1A032B5CD8012175
:10800000284601F069FC404601F08AFC204601F058
:1080100087FCDBF80870FAB2D11C0BEB810C1BF863
:1080200021104B0701F0040027D40BEB82017A1CCE
:10803000C9680591D2B20BEB820201F0030001285E
:10804000D66807F1020730D00228BED0204601F0E2
:1080500073FC002631460028C5D12846C6E7BCF887
:10806000027001EB9717FAB2D31C0BEB830C1BF8D1
:10807000230000F004000028D7D09CF8003003F063
:108080000303012B0AD0022B07F1020102F10303C3
:10809000E5D00BEB830C0028EFD1C6E7BCF800302D
:1080A0000237C3F383131F44DDE7BDF81420C2F386
:1080B0008312360C174490E7DDE90276D3B203331E
:1080C00085214BF8231004329DF81300CBF80420CF
:1080D00001F014F9BB1CDBB20BEB8303019AC3F86C
:1080E0000CA0FB1CDBB20BEB830300211548DA600C
:1080F00001F0B8FB80F31001F300781C03F03803A3
:10810000C0B2FAB2090443F081030BEB80000332E2
:1081100043EA892341EA1641C1604BF822309BF8BB
:10812000003023B9FFF714FA09B0BDE8F08FFFF76C
:1081300041FA0028F6D0FFF73DFA0028F7D1F1E721
:108140003A46BBE7EC370020D03300202DE9F04F52
:10815000DFF8B0B187B0002306460DF10B008DF8B3
:108160000B30CDE9001201F0A3F8DBE9018303F540
:108170008073A3EB0803022B00F281800BF21C45F5
:108180000BF583670BF214441AE0BDF80E20C2F31E
:10819000891203324FEA114A09EB9209204601F095
:1081A000CBFB514600283AD02846CBF8089001F086
:1081B00093FBDBE9012303F580739B1A022B5FD845
:1081C0000121284601F088FB384601F0A9FB204632
:1081D00001F0A6FBDBF80830DAB2D11C0BEB810C06
:1081E0001BF8211001F00400490728D40BEB820191
:1081F0005A1CC9680391D2B201F003000BEB820252
:108200000128D16803F1020931D00228BDD02046EF
:1082100001F092FB4FF0000A51460028C4D12846D5
:10822000C5E7BCF802300EEB9313DAB2D11C0BEBAE
:10823000810C1BF8211001F004000028D6D09CF816
:10824000001001F0030101290AD0022903F1020EF6
:1082500002F10301E5D00BEB810C0028EFD1C5E75B
:10826000BCF800200233C2F383121344DDE7BDF8EB
:108270000C20C2F383124FEA114A91448EE7424622
:10828000D3B2033345214BF8231003329DF80B0082
:10829000CBF8042001F032F808F10203DBB20BEB5B
:1082A0008303019A1648DA60002101F0DBFA80F3BB
:1082B0001001F300009A03F0380343F0410308F182
:1082C000010043EA8223C0B25FFA88F209040BEB93
:1082D0008000033241EA1641C1604BF822309BF81E
:1082E000003023B9FFF734F907B0BDE8F08FFFF78E
:1082F00061F90028F6D0FFF75DF90028F7D1F1E722
:10830000EC370020D03300202DE9F04FDFF8A0A19A
:1083100087B0002306460DF10B008DF80B3001915C
:1083200000F0C6FFDAE9018303F58073A3EB0803CD
:10833000012B00F281800AF21C450AF583670AF2DC
:1083400014441AE0BDF80E30C3F3891303334FEA27
:1083500011490BEB930B204601F0EEFA4946002839
:108360003AD02846CAF808B001F0B6FADAE9012393
:1083700003F580739B1A012B5FD80121284601F079
:10838000ABFA384601F0CCFA204601F0C9FADAF827
:108390000830DAB2D11C0AEB810C1AF8211001F076
:1083A0000400490728D40AEB82015A1CC9680391CA
:1083B000D2B201F003000AEB82020128D16803F176
:1083C000020B31D00228BDD0204601F0B5FA4FF0A3
:1083D000000949460028C4D12846C5E7BCF8023048
:1083E0000EEB9313DAB2D11C0AEB810C1AF82110B0
:1083F00001F004000028D6D09CF8001001F0030121
:1084000001290AD0022903F1020E02F10301E5D08D
:108410000AEB810C0028EFD1C5E7BCF8002002333D
:10842000C2F383121344DDE7BDF80C30C3F38313AA
:108430004FEA11499B448EE74246D3B203330521EC
:108440004AF8231002329DF80B00CAF8042000F00D
:1084500055FF0021154801F005FA80F31001F300E3
:10846000019A03F0380343F0010308F1010043EAE5
:108470008223C0B25FFA88F209040AEB800003325B
:1084800041EA1641C1604AF822309AF8003023B917
:10849000FFF75EF807B0BDE8F08FFFF78BF8002814
:1084A000F6D0FFF787F80028F7D1F1E7EC37002086
:1084B000D033002030B4154DD5F81014044679B1EE
:1084C00000200B4601E01B685BB1DB681A79824231
:1084D000F9D101300A28F4D14FF0FF3030BC704799
:1084E0000846E3681871D5F810344BB1DA68E368D0
:1084F00012681A60D5F81034DB681C6030BC704715
:10850000C5F81044E268136030BC7047D0330020D7
:1085100038B5084BD3F8104401251D704CB1E36801
:108520005D71236820465B689847E3681C68002CEF
:10853000F5D138BDD033002070B5C38882B0044671
:108540000D461BBB237A052B1ED0627A7AB9134ADB
:10855000A08852F823600021FEF7C0FF10490346AF
:108560003246284602B0BDE8704001F06BBA1946A9
:10857000A088FEF7D7FF0B4B0B4953F82020284665
:1085800001F060FA237AE2E702B070BD074900917A
:10859000074A0849284601F055FAD3E7BC490400C8
:1085A0002049040098490400206C04001849040084
:1085B000F8480400004904002DE9F04385B01D4649
:1085C0000C9C002394F80C90237380460E461746AB
:1085D00021462846FFF7B0FF062F09D8DFE807F04D
:1085E000042E343B444F1F004146204601F02AFA36
:1085F0002B7A052B05D06B7A5BB92749204601F011
:1086000021FA204601F012FA84F80C9005B0BDE87A
:10861000F083224A2249204601F014FAEDE77369FB
:10862000039333690293F3680193B3680093D6E927
:1086300000234146204601F005FAD9E73268414659
:10864000204601F0FFF9D3E7D6E900234146204652
:1086500001F0F8F9CCE7B3680093D6E9002341466E
:10866000204601F0EFF9C3E7F3680193B368009384
:10867000D6E900234146204601F0E4F9B8E7336922
:108680000293F3680193B3680093D6E9002341464F
:10869000204601F0D7F9ABE7607A040018490400DE
:1086A000206C0400082900D970472DE9F04F1D46C1
:1086B00083B000241B7B2C730E46074629461046C8
:1086C00090460193DFF8D0B0DFF8D0A0FFF734FF79
:1086D00005E03A5D013401F0B5F9082C09D0A64255
:1086E00051462846F5D85946013401F0ABF9082C1B
:1086F000F5D12449DFF8A8B0234CDFF8A8A028461C
:1087000001F0A0F94FF0000917E017F80910481C14
:108710007E294FF02E02C0B206D81AF8002012F0BF
:10872000970F14BF0A462E222146284609F1010957
:1087300001F088F9B9F1080F0AD04E45E5D859463D
:10874000284609F1010901F07DF9B9F1080FF4D1CA
:1087500098F80830052B02D098F809305BB90B491E
:10876000284601F06FF9284601F060F9019B2B7350
:1087700003B0BDE8F08F064A0649284601F062F9C9
:10878000EDE700BF384904003C490400607A04006A
:1087900018490400206C0400344904002C490400EA
:1087A000D4A604001CA3040038B5174B1D783DB3B4
:1087B000164A1168C0B200230C4604E00133AB42F4
:1087C00004F108041CD011F833209042F6D102F0D5
:1087D000D9FB6378A3F10103B3FA83F35B09834206
:1087E00000D038BD0A4AD2E900321343F9D1094B0F
:1087F000094819680022BDE83840490800F0B4BCB7
:1088000000231B78FFDE00BF843900208839002058
:108810007839002080390020083000202DE9F04709
:10882000DFF86092DFF860A299F8003082B0002B88
:108830004FD0DFF85882904F0024D8F8005015F838
:10884000340002F09FFB15F8346005EBC405720894
:108850006B78B95CA3F10103B3FA83F3F5074FEA30
:10886000531340F1A2800D09042D00F29B80DFE834
:1088700005F0033847544E00834240F093800F20A8
:10888000102301400B43BB540DF1070000238DF86A
:10889000073000F00DFD0122A6F12003C6F12001F2
:1088A00022FA01F102FA03F30B43DAF800109DF803
:1088B0000700B2401143DAF80420CAF800101A4346
:1088C000CAF8042000F01AFD99F8002001349442FF
:1088D000B3DBDAE90032134340F0C38002B0BDE8F5
:1088E000F087181AB0FA80F0400943010F200840C1
:1088F0000343BB5499F80020013494429DDBE8E720
:1089000083424FF00F0040F0AA8030236AE0834298
:1089100040F0A3800F20302396E0834242D00F2006
:10892000402391E0834200F09580F02399F80050B5
:108930000B40BB54A5B1D8F800000023024603E069
:10894000AB4202F108020BD010F83310B14203F130
:108950000103F5D122B1536813B100213046984785
:1089600000230DF107008DF8073000F0A1FC012273
:10897000A6F12003C6F1200122FA01F102FA03F365
:108980000B43DAF800109DF80700B24021EA02011B
:10899000DAF80420CAF8001022EA0302CAF8042018
:1089A00000F0ACFC99F80020A6E701F00F05042DBB
:1089B000F8D80FF2080C5CF825F000BF3D8A0200E1
:1089C0002F8A0200DB890200D1890200258902007A
:1089D0008342E7D0F020042336E083424FF0F000DA
:1089E00031D1032301400B43BB5499F80020002AE6
:1089F0003FF46FAFD8F800500023294604E09342BB
:108A000001F108013FF478AF15F83300B04203F1EB
:108A10000103F4D100293FF46FAF4B68002B3FF402
:108A20006BAF30460121984799F8002064E7181A87
:108A3000B0FA80F040094300F02058E78342B1D1FA
:108A4000F02001231DE7012301400B43BB5499F89B
:108A5000002051E7F0200323F6E70F2366E71023F9
:108A6000F2E7064B064819680022490802B0BDE843
:108A7000F04700F079BB00BF583900208039002052
:108A800008300020843900207839002088390020FF
:108A9000092A3FD9F0B583B0144605460E4602F0C8
:108AA000EFF888B3204B214A1E70214B156000213E
:108AB00020481C60202216F0FFFC1F4B00200021E4
:108AC000741EC3E90001E4B236B31C4F05EBC404C5
:108AD000032602E0A5421FD01C469DF8063094F8FC
:108AE00002C020788DF8046023F007033A4601A9FC
:108AF0008DF806308DF805C002F0CCF8A4F108031B
:108B00000028E7D003B0F0BD02F06CF80028C9D00F
:108B100003B0F0BD07207047094A0A48002103B09E
:108B2000BDE8F04000F008BB8439002088390020FF
:108B3000803900205839002078390020A9870200A8
:108B40001D880200D049040070B5084D2B785BB138
:108B5000074E00243368012113F8340002F09AF91B
:108B60002B780134A342F5D8002070BD8439002051
:108B70008839002000B585B00346002101AA44F2DF
:108B80000100CDE90111039300F004F805B05DF890
:108B900004FB00BF10B572B6FFF7BAFCFEF70AFD82
:108BA0000028FBD1104B114C1149E41AE4082404AD
:108BB00044F00100FFF7A8FB0E4BD3F8F030DB07C1
:108BC00000D500BE0C4944F00200FFF79DFBBFF347
:108BD0004F8F0849094BCA6802F4E0621343CB6027
:108BE000BFF34F8F00BFFDE78CA70400B4A70400BC
:108BF000E049040000ED00E0EC4904000400FA053F
:108C0000844612F0030014D14B1C10B4DB000A4C54
:108C10009BB213442260094A1360094A094B107041
:108C20001870094A094BA2F800C019805DF8044B7E
:108C300070470720704700BF983900209439002002
:108C400090390020913900208E3900208C39002085
:108C50002DE9F0432C4E33888B4283B003D2092098
:108C600003B0BDE8F083002507460DF107000C4670
:108C700090468DF8075000F01BFB244B24491A78CE
:108C8000244B0888197881425FFA81FC38BF0CF1C7
:108C9000010CD2B238BF5FFA8CF5AA422BD01D78F6
:108CA0001978DFF87890CAB2884286BF0132D2B212
:108CB00000229DF807001A70EDB200F01FFBD9F8F2
:108CC000003043F8358003EBC5034FEAC50807B110
:108CD0001CB900229A800020C2E70F4B30881B6825
:108CE000394605FB0030224616F0D0FAD9F800309C
:108CF00043449C80EFE79DF8070000F0FFFA042052
:108D000003B0BDE8F08300BF8E3900209139002008
:108D10008C390020903900209439002098390020A7
:108D20002DE9F84F1A4C1B4D22782B789A4224D00B
:108D3000DFF868A0DFF86890174FDFF868B04FF0F1
:108D400000082378DAF800103888D9F8006051F864
:108D5000332001EBC30C03FB0060BCF80410904708
:108D60002278BBF80010D3B201339142DBB206D9AE
:108D7000237023782A789A42E3D1BDE8F88F84F8EB
:108D8000008022782B789A42DBD1BDE8F88F00BFB3
:108D900091390020903900208E3900209839002028
:108DA000943900208C39002030B48D688468C26802
:108DB000CB68A54293412CBF0120002030BC7047F6
:108DC00030B5344B1D7883B01DB90025284603B05B
:108DD00030BD04460028F8D02F4800F0F3FB2F4B9D
:108DE0001A685B6880182E4AD2E9001243F100032A
:108DF000884273EB020203D210F1807043F100034A
:108E0000D4E90212884293410AD2B2F1FF3F08BF6F
:108E1000B1F1FF3FD9D02348214601F08FFBD5E7C0
:108E200000230DF107008DF8073000F041FA2369A7
:108E30002BB94FF0FF324FF0FF33C4E902239DF806
:108E4000070000F05BFAD4E90530984700230DF1E4
:108E500007008DF8073000F02BFA2369ABB1D4E995
:108E60000212B2F1FF3F08BFB1F1FF3F0DD05B1816
:108E700042F100029DF80700C4E9023200F03EFA18
:108E80000848214601F05AFBA0E79DF8070000F0D2
:108E900035FA9AE7183A002028300020103A0020CE
:108EA000083A0020FC4904002DE9F04F83B08146C8
:108EB00000F05CFB40B17C4AD2E9003113F18073D1
:108EC00041F10001C2E900310021484600F06AFB8F
:108ED000764D30B12B6823B12868FFF771FF00236E
:108EE0002B600121484600F05DFB002840F0C48063
:108EF0006F4801A900F002FC00283AD06C4C4FF0FA
:108F0000FF3A4FF0FF3B09E033B301A9204600F0E0
:108F100027FC01A9204600F0F1FB50B30378012B98
:108F200011D0022BF0D1634E304601F01BFB30B163
:108F3000C0E902AB304601F015FB0028F8D15E4BCA
:108F400001221A70E1E72B684168994200F0918094
:108F5000584801F011FBD8E74168D1E90223B3F189
:108F6000FF3F08BFB2F1FF3FCFD0524801F0E6FA11
:108F7000CBE7504E514FDFF83081304601F0F8FA20
:108F8000002853D0D0E90223B3F1FF3F08BFB2F16C
:108F9000FF3F6AD0296891B12968D1E90201824274
:108FA0008B4159D22B68D3E90223B3F1FF3F08BFAD
:108FB000B2F1FF3F03D02968304601F0BFFA3046D6
:108FC00001F0D0FA04463846D4E902AB00F0FAFAD0
:108FD0003B4BD8F80410D3E900E2D8F80030C318AE
:108FE00041F10001734571EB020C03D213F1807360
:108FF00041F10001BAEB03036BEB010B012B7BF199
:10900000000B1BDBB3F5D40F29D252464FF41603E5
:109010000021384600F020FAC0B10D2812D00023FC
:1090200030462B6001F0A4FA0028ABD12B689BB925
:10903000484603B0BDE8F04F00F0E0B900213846E3
:1090400000F0A4FA2046FFF7BBFEE8E72B6813B94F
:10905000484600F0CFF92C6003B0BDE8F08F3846E9
:1090600000F0B0FA174A0244D0E7304601F07AFA2D
:1090700083E700232B6048E7104800F0A3FA0A4B6F
:109080001A685B6880180E4AD2E9004143F1000378
:10909000A04273EB010103D210F1807043F1000391
:1090A000C2E9000324E700BF103A00201C3A002068
:1090B000A0390020FC490400183A00202830002084
:1090C000083A0020FFFF690010B582B00622002494
:1090D0008DF8062012491348ADF8044008235822A1
:1090E00000F090FA044610B1204602B010BD0E4ABE
:1090F0000E4801A900F01AF904460028F4D10B48E3
:10910000012100F029FA01231946094A074800F015
:1091100079F9084B012220461A7002B010BD00BF39
:10912000B0390020A0390020A98E0200283000208C
:10913000FFFF7F00183A00206AB19FED097BA1F183
:1091400001010368B1FA81F1490983ED027BC3E9AA
:109150000412002070470720704700BFAFF3008063
:10916000FFFFFFFFFFFFFFFFF0B583B004460026BF
:1091700001A817460D468DF8046000F099F8D4E96F
:109180000223B3F1FF3F08BFB2F1FF3F06D09DF8C5
:10919000040000F0B3F8304603B0F0BD1C4800F006
:1091A00011FA1C4B1C4A19685B684018D2E900127E
:1091B00043F10003884273EB020220D3281843F1E5
:1091C0000003A060E3609DF8040000F097F82369B5
:1091D000A76103B12561114801A900F04DFA0346CA
:1091E00050B100220D481A705C6001A900F076FAB7
:1091F00050B9002003B0F0BD042003B0F0BD10F161
:10920000807043F10003D9E7014800F0DFF9F0E78F
:1092100028300020103A0020083A0020A039002011
:1092200030B583B00446002501A88DF8045000F045
:109230003FF8D4E90223B3F1FF3F08BFB2F1FF3F8B
:109240001DD04FF0FF334FF0FF32C4E902239DF8E9
:10925000040000F053F80F4801A900F00DFA03468E
:1092600050B101220B481A705C6001A900F036FA77
:1092700060B9002003B030BD042003B030BD9DF8BC
:10928000040000F03BF8284603B030BD024800F06F
:109290009DF9EEE7A039002028300020401A20F088
:1092A0007F407047014800F08DB900BF2830002092
:1092B00070B4EFF3108472B60D4A9368ABB9012114
:1092C00091600C490C4ED1F8805035401560C1F8C2
:1092D0008060D1F8845055604FF0FF32C1F884208F
:1092E000037004B962B670BC70470123F8E700BF91
:1092F000203A002000E100E0FC06FFBD094B9A681F
:109300007AB170B910B4EFF3108172B6064A1C68D6
:1093100014605C685460986001B962B65DF8044BF3
:1093200070477047203A002000E100E010B5294C5A
:10933000437944F82320284C04EBC3031B79002B0A
:109340003BD103680A88C3F8082590F904308A786D
:10935000002B2ADB03F16043520103F56143D2B2D3
:1093600083F8002390F90430002B09DB1B494FEAF6
:10937000531C012203F01F0302FA03F341F82C30BF
:109380004279174B44F832001648181A04EBC20110
:10939000C0084FF0010C000481F804C040F0030045
:1093A0001149FEF7B1FF002010BD104903F00F0373
:1093B00052011944D2B20A76D4E70A4B08480C4944
:1093C000C01AC008000440F00200FEF79DFF08200C
:1093D00010BD00BF343A00202C3A002000E100E02C
:1093E000C4A704008CA70400384A0400FCEC00E089
:1093F000144A0400036801221A60704703680122BE
:109400005A60704770B405684FF480348C40C5F8DA
:109410000843056801F1500CC5F848434FEA8C0C2D
:1094200005681FFA8CFC002645F80C6083B055F8DF
:109430000C500195019D056801F5A87122F07F424D
:1094400045F821200268C2F8444313B10368C3F809
:10945000044303B070BC70472DE9F0474FF48037E8
:10946000994603688F40C3F848730368C3F80873CC
:10947000036801F150060D4603EB810122F07F489D
:10948000D3F80435D1F84025C1F84035B600B6B25E
:10949000D21A03684FF0000A43F806A082B09B5925
:1094A000009322F07F42012A009B044645D02368A6
:1094B000D3F80465C3F84473A8EB060323F07F4395
:1094C000012B05F5A87527D0226842F82580216870
:1094D000D1F80405A8EB0002C9F1FF13013A03F526
:1094E0007F4322F07F42934212D342B1C1F84473CA
:1094F00023680020C3F8047302B0BDE8F08708F1C8
:10950000010341F825302168D1F804359842EDD0A7
:109510000D2002B0BDE8F087236808F1010243F88E
:1095200025200C4B4FF4806043F0010398472168DD
:10953000D1F804359E42D9D0EAE7064B4FF480605B
:1095400043F001039847236843F806A09B59019311
:10955000019BACE7504A040002680223C2F844337E
:1095600011B10268C2F80433704700BF0368D3F832
:10957000040100B97047002282B0C3F80421D3F877
:1095800004310193019B012002B0704702684FF43F
:10959000803303FA01F1C2F848130368C3F80813D3
:1095A000704700BF50318900036889B2585800B92C
:1095B000704700225A5082B05B580193019B0120F2
:1095C00002B070470368D3F80405704790F904307F
:1095D000002B09DB5A09054803F01F030121403223
:1095E00001FA03F340F82230704700BF00E100E0C9
:1095F000024A034B10681B68184700BF2C3A002032
:10960000343A002099B110B4B2FBF3F403FB1424F4
:10961000A4B244B90160446084608281C381204661
:109620005DF8044B704709205DF8044B70470E202D
:10963000704700BF82B050E8022FC188B2EB324FB2
:109640004FF0000317BF92B241EA014142EA0141E3
:1096500004E04268B2EB324F08BF012340E8021237
:10966000002AE8D18DF807309DF80730002B0CBF99
:109670001120002002B0704710B483B050E8013FC1
:109680001FFA83FCC489A4448489A44528BFACEB99
:10969000040C0489A44502BFBFF32F8F002207E00A
:1096A000CCEA030C40E801C4002CE7D14FF00102E2
:1096B0008DF803200193019C9DF803200C6032B1CA
:1096C000006810FA84F003B05DF8044B704702F0B4
:1096D000FF03184603B05DF8044B70470A884B88B7
:1096E0009A4201D00020704750E8012FC2EA02429E
:1096F00040E80123002BF7D10120704710B483B05C
:1097000050E8023F1FFAA3FCC488A44502BFBFF380
:109710002F8F00220EE0C489A4448489A44528BF69
:10972000ACEB040CC3EA0C4C40E802C4002CE7D1BB
:109730004FF001028DF803200193019C9DF8032056
:109740000C6032B1006800EB144003B05DF8044BCC
:10975000704702F0FF03184603B05DF8044B7047F2
:109760000A884B889A4201D00020704750E8022FA7
:10977000C2EA224240E80223002BF7D101207047C1
:109780004B0901F01F024FF0010C0CFA02F100EB43
:10979000830000F07DB800BF4B0910B501F01F0435
:1097A0000121A14000EB830000F066F8E04000F0EA
:1097B000010010BD01F01F02012303FA02F24B0960
:1097C00000EB8300D14300F06FB800BF4B0901F0FC
:1097D0001F0150F82300C84000F00100704700BF8F
:1097E0002DE9F04F01F1FF3B83B04FEA5B130F46C9
:1097F0000546019300264FF0010A55F8264005EB77
:109800008608E44394FAA4F4FCB1B4FA84F404EBBB
:1098100046144FEA4619A74217D904F01F036009FE
:109820000AFA03F105EB80009B4600F025F820FAC8
:109830000BF0C30711D5D8F80030DB4393FAA3F33C
:10984000B3FA83F44C44002BE5D1019AB24206F1FD
:10985000010301D01E46D0E73C46204603B0BDE8D8
:10986000F08F00BF034653E8000F0A4643E8002C80
:109870009CF0000FF7D17047034653E8000F40EA11
:10988000010243E8002C9CF0000FF6D1704700BFA6
:10989000034653E8002F42EA010043E8000C9CF025
:1098A000000FF6D1704700BF034653E8002F02EACD
:1098B000010043E8000C9CF0000FF6D1704700BF98
:1098C000034653E8000F00EB010243E8002C9CF034
:1098D000000FF6D1704700BF034653E8002F02EB9C
:1098E000010043E8000C9CF0000FF6D1704700BF68
:1098F000034653E8002FA2EB010043E8000C9CF064
:10990000000FF6D1704700BF0346012253E8000F55
:1099100040EA020143E8001C9CF0000FF6D17047BA
:109920000346012253E8001F41EA020043E8000C0D
:109930009CF0000FF6D170470346002253E8000F59
:1099400000EA020143E8001C9CF0000FF6D17047CA
:109950000346002253E8001F01EA020043E8000C1E
:109960009CF0000FF6D17047D0B110B4D0E90112CD
:10997000521A0468D2B2531E2160DBB252B10168A0
:109980000A6803F1FF3C541C0C6013705FFA8CF3FF
:10999000FF2BF4D10368002018715DF8044B704769
:1099A0000E20704730B583B0044600250DF1070046
:1099B0008DF80750FFF77CFCD4E900311A688A4221
:1099C00010D9511E19602168A368086812F801CCEB
:1099D0000A79E5681B1ADBB2208A9A4238BF0B71FC
:1099E00000FB0C559DF80700FFF788FC284603B0E4
:1099F00030BD00BF30B5054683B00DF10700002330
:109A00000C468DF80730FFF753FC2A681368591C81
:109A10001160E9682A8A641AB4FBF2F41C709DF89C
:109A20000700FFF76BFC03B030BD00BF826842B196
:109A300010B5044643690168006998470023A36094
:109A400010BD70470EB400B582B0039921B104ABCC
:109A500001AA019300F0B2F802B05DF804EB03B084
:109A6000704700BF2DE9F04F164683B0B142DDF8D4
:109A700030900D9A0F4605469A46C0F09A800B46E4
:109A80004FF00108B3FBF6F39E4208F10108F9D943
:109A9000D04538BFD04612F00103019302D1B9F18D
:109AA000000F65D1AA68BAF1010F4FF0010406D981
:109AB0000AF1FF3ABAF1010F06FB04F4F8D8B7FB3C
:109AC000F4F39E4205D806FB04F4B7FBF4F39E4280
:109AD000F9D9DFF8E4A007E0B442B4FBF6F31AD3F7
:109AE000AA681C46B7FBF3F31AF803B0BBF10A0FE0
:109AF00004FB13772DD02B68511CA96003F802B02A
:109B0000D5E901329A42E7D32846FFF78FFFB4FB2D
:109B1000F6F3B442E4D2019BC3B1B9F1000F15D002
:109B2000C14513D9202401E0C1450FD0AB682A6894
:109B3000591CA960D454D5E901329A4209F1FF3980
:109B4000F2D32846FFF772FFC145EFD103B0BDE85D
:109B5000F08F511C2B68A9604FF00D019954D5E985
:109B600001329A42C7D32846FFF760FFAA68C2E7CE
:109B7000930718D42024C14594D9AA682968531C96
:109B8000AB608C54D5E901128A4209F1FF3905D244
:109B9000B9F1000F87D0C145F0D184E72846FFF71F
:109BA00045FFAA68F4E7BAF1000F14BF202430245F
:109BB000E1E74FF001086BE7584A0400002900F084
:109BC00070822DE9F04F0C4685B014F8015B064613
:109BD000002D7BD091464FF00D0A10E00A2D00F0C9
:109BE0009080B3683268591CB160D554D6E901320F
:109BF0009A4280F082802578002D67D00134252D8F
:109C0000ECD10027224614F8013B2D2B6FD0302BCE
:109C100070D02B2B64D02A2B00F08280A3F130016E
:109C200009294FF000050BD805EB850503EB450529
:109C300012F8013FA3F130010929A5F13005F3D94C
:109C40002E2B144677D04FF0000803F0FB02682A51
:109C500043D0252B00F08E81583BDAB2202A31D830
:109C6000202B2FD8DFE813F021002E002E002E002D
:109C70002E002E002E002E002E002E002E0004019D
:109C80007D002E002E002E002E007D002E002E00C6
:109C90002E002E002E002E00B5002E002E002101D9
:109CA0002E001C012E002E002100D9F80010434682
:109CB0001022081DC9F8000009683046CDE9005798
:109CC000FFF7D0FE01342578002D97D1337B002B90
:109CD00040F04A8105B0BDE8F08F14F8013FB4E7C9
:109CE000224614F8013B2D2B47F004078FD147F093
:109CF000010787E747F0020784E73046FFF796FE43
:109D000079E7B3683268591CB16002F803A0D6E95C
:109D100001239342FFF466AF3046FFF787FE60E70A
:109D2000D9F80030191DC9F800101D6853782E2B82
:109D300002F1010487D16378A3F13002092A04F10A
:109D400001044FF0000880D808EB880803EB4808AE
:109D500014F8013FA3F13002092AA8F13008F3D921
:109D600073E7D9F800301A1DC9F80020D3F800B005
:109D70008BEAEB73A3EBEB73092B40F30D82B7482F
:109D800001211A46632AA0FB03C301F101014FEA36
:109D9000D303F6DC414538BF4146002D40F0208119
:109DA0000025BBF1000FC0F2908107F00403002BE7
:109DB00040F0E18107F00303022B00F0D481CDE9EC
:109DC0000057434659460A223046FFF74BFE0134FE
:109DD00079E7D9F800301A1DC9F80020D3F80080BF
:109DE000B3683268581C3021B060D154D6E90123E1
:109DF000934280F02581591C3268B1607821D1549A
:109E0000D6E901329A4280F01681B8F10F0F474629
:109E100003D943461B090F2BFCD80125082301E079
:109E2000013B2D01012BFBD1B8FBF5F10F29F8D82F
:109E3000DFF82CB206E00F2D4FEA15137FF642AF84
:109E4000B2681D46B7FBF5F31BF80380B8F10A0FA3
:109E500005FB137778D03368501CB06003F802809C
:109E6000D6E901329A42E6D33046FFF7DFFDE2E75A
:109E7000D9F800301A1DC9F800201D78B3680A2DE2
:109E800000F030813268591CB160D554D6E90132F6
:109E90009A42FFF417AF3046FFF7C8FD013412E7CE
:109EA000D9F8001043460A2203E7D9F800301A1DFA
:109EB000C9F8002017F00107D3F8008065D1B8F188
:109EC000000F03D0404616F09BFA0746BD4215D955
:109ED0004FF0200B01E0BD4210D0B2683368511C36
:109EE000B16003F802B0D6E90123934205F1FF35D2
:109EF000F1D33046FFF79AFDBD42EED198F80050FD
:109F0000002D3FF4DFAEB3680D270A2D0FD0326865
:109F1000591CB160D554D6E90123934280F0C28028
:109F200018F8015F002D3FF4CDAE0A2DEFD1326855
:109F3000591CB160D754D6E901239342E7D3304688
:109F4000FFF774FDB368E2E73368501C4FF00D0172
:109F5000B0609954D6E901329A42FFF47CAF3046A2
:109F6000FFF764FDB26876E7304605B0BDE8F04F14
:109F7000FFF75CBDB2683168501CB0608B54D6E905
:109F800001329A4287D201349DE698F80020002AD7
:109F900000F013810A2AB368C3464FF00D0710D0B2
:109FA0003168581CB060CA54D6E9012393420BF1C2
:109FB00001016AD29BF80120002A46D08B460A2A6A
:109FC000EED13168581CB060CF54D6E901138B42F2
:109FD000E6D330460392FFF729FDB368039ADFE723
:109FE000BBF1000F68DB17F0040300F08A80BA07AA
:109FF00005F1FF3503D5B8F1000F3FF4D8AEFA07ED
:10A000003FF5D5AE002D3FF4D2AEA942BFF4CFAE9E
:10A010002023B268501CB06030688354D6E9010236
:10A02000824205F1FF3580F09380002D3FF4B8AEF9
:10A03000A942EED1B5E63046FFF7F8FCB268E4E697
:10A040003046FFF7F3FCB368D5E6C8F1010293444C
:10A050005D457FF637AE4FF0200806E0CDCCCCCC86
:10A06000584A0400AB453FF42DAEB36831685A1C22
:10A07000B26001F80380D6E90131994205F1FF355C
:10A08000F0D33046FFF7D2FCECE73046FFF7CEFCCA
:10A090009BF801200BF10101002AD6D0B3688B4652
:10A0A0008DE770473046FFF7C1FC18F8015F002DBF
:10A0B0003FF408AEB36828E7B80705F1FF354ED482
:10A0C000FB0702D40DB1A942A2D3B2683368501C79
:10A0D000B0602D209854D6E901329A425ED2CBF17D
:10A0E000000B67E6591C3268B1600D21D154D6E9E6
:10A0F00001239342FFF4C6AE3046FFF797FCB368E6
:10A10000C0E6BA0750D4FB075CD507F00303022B67
:10A110007FF455AEB8F1000F7FF451AEA942BFF401
:10A120004EAE3023B268501CB06030688354D6E91C
:10A130000102824205F1FF3503D2D5B1A942F1D126
:10A140003DE630460391FFF771FC03993023F4E7B5
:10A1500030460391FFF76AFC0399202365E7B8F1C5
:10A16000000FADD1B1E7B8F1000F7FF428AE002D9C
:10A17000D4D1002523E6B2683368501CB0602B2090
:10A180009854D6E901329A42FFF414AE3046039156
:10A19000FFF74CFC03990DE60121FBE530460391E6
:10A1A000FFF744FC03999AE7B8F1000F07D107F0D5
:10A1B0000303022B7FF403AEB0E7934648E7F807AA
:10A1C0003FF5F8AD8D423FF623AFF3E5FFF7CCBB8B
:10A1D0002DE9F041078ACE1C043F3E440546B6FBFC
:10A1E000F7F6FFF7DFFB002834D0F6B24FF48073A8
:10A1F000013E04468380C78005602CD003464FF0A3
:10A20000000807E06279464502F101026271386098
:10A21000056020D028461F46FFF7C4FB08F101085F
:10A2200003460028EED16779791E17D02246013304
:10A2300099421268FBD1D2F800805FB126680025F0
:10A2400001E034463668214640460135FFF7D2FB2F
:10A25000AF42F6D800242046BDE8F08120682146B0
:10A26000FFF7C8FBF6E700BF01210430FFF734BB5E
:10A270002DE9F041012104460430FFF739FB10F0CD
:10A28000FF0301D0BDE8F0816779791E16D0224620
:10A29000013399421268FBD1D2F80080002FF1D02F
:10A2A0002668002501E034463668214640460135DF
:10A2B000FFF7A0FBAF42F6D8BDE8F0812068214649
:10A2C000BDE8F041FFF796BB2DE9F8438846C78803
:10A2D000417907FB01F1043902EB030C1E1D6145B6
:10A2E000154638BFCD1AB7420446B6FBF7F207FB56
:10A2F000126002D8013A2468FCD13E1AAE4228BF4F
:10A300002E469DB14FF000090430AD1B324608EBDC
:10A310000901204414F0BAFFAF42B14424683E461C
:10A320004FF0000028BF2E46002DEDD1BDE8F88388
:10A330002DE9F8430446C788407907FB00F004384C
:10A3400002EB030C1E1D6045154638BFC51AB74207
:10A350008846B6FBF7F207FB126102D8013A24687F
:10A36000FCD17E1AAE4228BF2E469DB14FF00009A7
:10A3700004312144AD1B324608EB090014F086FF7E
:10A38000AF42B14424683E464FF0000128BF2E463C
:10A39000002DEDD1BDE8F88341DF7047064A074B39
:10A3A00010B5002414701C60BFF35F8F044905488A
:10A3B00000F0AEF8204610BD403A0020443A00209C
:10A3C000684A0400383A002000B583B000230DF13C
:10A3D00007008DF80730FEF76BFFF1EE103A23F01F
:10A3E0009F03E1EE103ABFF35F8F0B4B4022C3F89F
:10A3F00084219DF80700FEF781FF05F041FB28B995
:10A4000020BF40BF20BF03B05DF804FB03B05DF880
:10A4100004EBFFF7C1BF00BF00E100E0826800234A
:10A42000936082681361826853618268D360826836
:10A430005360826813607047F8B505460F46806820
:10A44000164613BBD0E903146A68081B02F1010C1D
:10A4500084452BD004EA020301EA0200984238BF87
:10A46000A418336836BF0134ACEB0004641A9C4274
:10A4700028BF1C4634602B6803443B60AA683168DF
:10A48000D3680B44D3600020F8BDFFF73DFA78B9DC
:10A49000D5E90123D3E9031402F1010C0B1B634539
:10A4A000D8D13060A868FFF753FAECE73360EAE7E9
:10A4B0001120F8BD38B5D0E901342569A26801330F
:10A4C0002B449B1A8B420CD30A44A26083689A687F
:10A4D000DA608068FFF730FAB0FA80F04009C00017
:10A4E00038BD042038BD00BF10B584682269A36858
:10A4F0009B1A8B420AD30A44226183681A695A6103
:10A5000080680430FFF724FA002010BD042010BD3D
:10A5100001600B6843604A68934208BF00234360B0
:10A52000704700BF436843B1026891680B444360C1
:10A530005268934204BF00234360704770B544687B
:10A54000064620680D4618B908E02468206828B13E
:10A55000B368294698470028F7D12068286025600D
:10A5600070BD00BF4368186808B102681A60704780
:10A5700043681868704700BF4368186818B908E056
:10A580000346006828B18142FAD10A681A600120A6
:10A59000704770470E49A1F5947205E052F83330C8
:10A5A000984238BF614607D28B1A1B11914202EBC9
:10A5B000C30CF3D80748704702D90CF10802F3E73F
:10A5C000DCF80400034B002808BF1846704700BFA2
:10A5D000A04F0400A04F040010B44FF08053D3F8F4
:10A5E0003021082A30D0844AD2F8883043F47003EE
:10A5F000C2F88830BFF34F8FBFF36F8F4FF0805397
:10A60000D3F83021082A11D04FF01023D3F80022BC
:10A61000002AC0F2C080D3F80432002BC0F2BB8005
:10A62000764B774A1A605DF8044B7047D3F83431A3
:10A63000052B40F2AA804FF010224FF08043D2F851
:10A640000822C3F85825DFE74FF080410020C1F809
:10A650000C016C4AC1F81001C1F83805D3F8041494
:10A66000C2F82015D3F80814C2F82415D3F80C1436
:10A67000C2F82815D3F81014C2F82C15D3F8141406
:10A68000C2F83015D3F81814C2F83415D3F81C14D6
:10A69000C2F84015D3F82014C2F84415D3F8241496
:10A6A000C2F84815D3F82814C2F84C15D3F82C1466
:10A6B000C2F85015D3F83014C2F85415D3F8341436
:10A6C000C2F86015D3F83814C2F86415D3F83C14F6
:10A6D000C2F86815D3F84014C2F86C15D3F83411D9
:10A6E000D3F84434C2F87035052942D8464B5B5C38
:10A6F0001BB1464B464AC3F88C26464B5B5C73B194
:10A700004FF080534449D3F83021FB20C1F818059D
:10A71000082AD3F834117FF466AF052929D83F4BB6
:10A720005B5CBBB14FF080524FF08040D2F85832A2
:10A73000D0F8E41ED2F8304121F00F0103F00F03EE
:10A740000B43C0F8E43E082CD2F834117FF44BAF31
:10A7500005290ED8324B5B5C5BB14FF08053314A18
:10A76000D3F830314FF40071082BC2F840167FF453
:10A770003AAF4FF08043D3F80024D2077FF533AFD0
:10A780006FF00102C3F800242DE7274AD35C002BA9
:10A790003FF43AAF4FE7254A0123C2F80435D2F817
:10A7A0000034002BFBD04FF0102312211F4AC3F8B6
:10A7B0000012D2F80034002BFBD04FF010231221EE
:10A7C0001A4AC3F80412D2F80034002BFBD000233D
:10A7D0001649C2F80435D1F80034002BFBD0BFF382
:10A7E0004F8F0549124BCA6802F4E0621343CB60F5
:10A7F000BFF34F8F00BFFDE700ED00E030300020D9
:10A800000090D00300C00040BC4F04000050004046
:10A8100048810300BC4F040000F00040BC4F04001E
:10A82000BC4F040000900240B44F040000E001401F
:10A830000400FA05074B1B5C1F2B8ABF064A4FF02A
:10A84000A04203F01F03D2F80405D84000F0010035
:10A85000704700BFC44F040000030050064B1A5C51
:10A860001F2A86BF054902F01F024FF0A0410123B5
:10A870009340C1F808357047C44F040000030050EE
:10A88000064B1A5C1F2A86BF054902F01F024FF0D3
:10A89000A04101239340C1F80C357047C44F040018
:10A8A000000300504FF0A0430B4910B44FF4005286
:10A8B0004FF40074C1F80C454FF08070C3F80C25BC
:10A8C0004FF480314022C3F80C05C3F80C15C3F8CF
:10A8D0000C255DF8044B7047000300504FF0A04377
:10A8E0000B4910B44FF400524FF40074C1F80845FE
:10A8F0004FF08070C3F808254FF480314022C3F830
:10A900000805C3F80815C3F808255DF8044B70471F
:10A91000000300500A4B185C1F288ABF09494FF0FA
:10A92000A04100F01F00D1F804350122824022EA44
:10A9300003001340C1F80805C1F80C35704700BF8B
:10A94000C44F0400000300504FF0A043D3F810059B
:10A95000C0F30030704700BF0C3818BF4FF0FF3015
:10A96000704700BF0C207047C10707D4830742BF60
:10A970004FF0A0430C22C3F8302770474FF0A0439C
:10A98000144910B403224FF40074C1F82427C3F80B
:10A990003427C3F86027C3F84027C3F81827C1F845
:10A9A0000C454FF080724FF40054C3F80C454FF43F
:10A9B0008031C3F80C254022C3F80C15C3F80C25D0
:10A9C000820704D54FF0A0430C22C3F830275DF86E
:10A9D000044B70470003005010B568B90E4CA368D3
:10A9E000012262703BB1D3E900230020A2609847A6
:10A9F000A368002BF7D110BD0128FCD1064C2369B8
:10AA0000A070002BF7D0D3E90023012022619847E2
:10AA10002369002BF7D110BD483A002070B910B55A
:10AA2000074CA368012262703BB1D3E900230020E8
:10AA3000A2609847A368002BF7D110BD704700BFF4
:10AA4000483A002030B5012883B004D0032821D033
:10AA5000B0B103B030BD294C00230DF107008DF8D3
:10AA60000730FEF725FC23786BB3E3689DF80700F9
:10AA700001221344E360A270FEF740FC03B030BD36
:10AA80001F4B0122C3F88020BFF34F8FBFF36F8F9E
:10AA900003B030BD194C00F045F800230DF107005C
:10AAA0008DF80730FEF704FCE368013BE360E368E0
:10AAB0001BB9144BD3F80054C5B19DF80700FEF73D
:10AAC0001DFC03B030BD10486360A3602361E360E8
:10AAD00000F01CF804F0D4FF60B10A4A012323708F
:10AAE000D2F80024002AC0D0A370BEE700F02CF8F2
:10AAF000A570E2E700F016F8EFE700BF483A002043
:10AB000000E100E000000140D9A90200044A1379E5
:10AB100023B9012110609180184670478520704745
:10AB20005C3A0020074B1A68D20704D4C02283F88D
:10AB3000002301221A604FF080430122C3F8182538
:10AB4000704700BF00E100E04FF080420221002387
:10AB5000C2F8081382B0C2F80431D2F8043101936C
:10AB600001230199D360D2F81834DB03FBD402B07F
:10AB7000704700BF10B54FF0804382B0D3F800217A
:10AB800062B10021164AC3F80011D3F800115079C0
:10AB900000910121009CC3F80813A8B14FF0804335
:10ABA000D3F80421CAB10022C3F80421D3F8042148
:10ABB000019202210A4A0198C3F808131368012080
:10ABC00002B0BDE8104018471368517198474FF024
:10ABD0008043D3F80421002AE5D102B010BD00BFA4
:10ABE0005C3A002030B5224D95F86A3083B0002BD6
:10ABF0003BD105F130015C09012C2DD1FF22CA5453
:10AC00000133302BF7D14FF0FF3341F8303C0622AF
:10AC100000211848EB62C5E90133C5E90333C5E9F2
:10AC20000533C5E90733C5E909332B6614F044FC45
:10AC3000114B402283F806231A60104B0020C3F802
:10AC40007C01D3F87C2101924FF00042019985F8F4
:10AC50006A40C3F8042309E04FF0FF3222FA03F000
:10AC6000C00748BFCA540133C5E7082003B030BD50
:10AC7000643A0020C83A002000E100E00060004093
:10AC8000034B93F86A00003818BF0120704700BFDB
:10AC9000643A002070B57C4B03EB000E9EF930C087
:10ACA000BCF1000F56DA91F802C01CF0020FCCF391
:10ACB000400541D11C6A013400F0B8805C6A01345F
:10ACC00000F0CF804FF0080E0C244FF00A0C53F820
:10ACD0002C60013642D00EF1030CA4452AD253F861
:10ACE0002C6001363AD00EF1040EA64522D21E6920
:10ACF000013631D05E69013600F0A5809E690136CB
:10AD000000F0A480DE69013600F0A380082C11D089
:10AD10001C6A013400F0B1805C6A013400F090805C
:10AD20009C6A013400F0AC80DC6A013408BF4FF04B
:10AD30000B0C13D0042070BD1C68013400F08C8013
:10AD40005C68013400F094804FF0000E08244FF04E
:10AD5000020CBCE7082070BD4FF0040C1C1843F82F
:10AD60002C204FFA8CF284F83020002D64D091F81A
:10AD700002C01CF0040F1ED11CF0010F45D11F288A
:10AD80004D7887BF414E00F01F0404464FF0A046A7
:10AD900004F5E074AD0046F824503D4EC50800F0BF
:10ADA000070E16F805C0012404FA0EF444EA0C0458
:10ADB000745591F802C01CF0020F1BD0930003F1F0
:10ADC000804303F5C0430978D3F8104524F44F3489
:10ADD00024F440740202C3F810450904D3F81005A6
:10ADE00002F47C5201F440310A430243C3F81025B7
:10ADF000002070BD083A43FA82F2097892F8603078
:10AE000043EA811382F86030F2E71F2887BF1F4CA6
:10AE100000F01F0505464FF0A04404EB8504D4F86C
:10AE2000005725F00205C4F80057B6E74FF0080CAC
:10AE30001A628EF830C062469C448CF8580096E73F
:10AE40004FF0090C8AE74FF0050C87E74FF0060C2E
:10AE500084E74FF0070C81E71A6000228EF830205B
:10AE600085E74FF0090C5A628EF830C06246E3E77E
:10AE70005A6001228EF8302079E74FF0080C6DE718
:10AE80004FF00A0C6AE700BF643A0020000300504C
:10AE9000C83A002030B4384C04EB000C82B09CF966
:10AEA0003030072B12DD083B44FA83F393F860300F
:10AEB0009B09032B35D0012B0CBF4FF400324FF40C
:10AEC00040321F2849D84FF0A04336E0DAB2072AB3
:10AED00024D8980000F1804003F1400200F5C04002
:10AEE00052B29200D0F8105592B202F1804202F5AF
:10AEF000C04245F00105C0F81055002010601268EE
:10AF00000192019A51B19CF9302054F822202AB1C3
:10AF10001A49012202FA03F3C1F8043302B030BC2B
:10AF200070471F281DD84FF0A0421346D2F81025B5
:10AF3000C24002F001020232120403EB8003D3F894
:10AF4000001721F44031C3F80017D3F800170A4363
:10AF5000C3F8002702B030BC704700F01F00084B58
:10AF6000EBE7074BD3F8102500F01F00C24002F0BA
:10AF7000010202321204F2E7643A0020006000404D
:10AF8000000300501F288ABF054B4FF0A04300F07C
:10AF90001F00D3F8103523FA00F000F001007047CD
:10AFA000000300502DE9F047002384B0CDE90233BF
:10AFB0001C4AD2F80011012900F03B821E46194BB1
:10AFC000D3F80421012A00F02582164BD3F808217A
:10AFD000012A00F01082134BD3F80C21012A00F053
:10AFE000FB81104BD3F81021012A00F0E6810D4BB4
:10AFF000D3F81421012A00F0D1810A4BD3F818218B
:10B00000012A00F0B881074BD3F81C21012A0BD08C
:10B01000044BD3F87C21012A00F02C8256BB04B0EB
:10B02000BDE8F08700600040D3F804231106EFD597
:10B030000022C3F81C21D3F81C110091D3F87C1115
:10B040000098012946F0800614D1C3F87C21D3F87A
:10B050007C3101934FF0A042019BD2F82015CD4BDB
:10B060000291C2F82015D3F820250392C3F82025B9
:10B0700046F00046C84F00240125A30003F1804399
:10B080002E4203F5C0434FEA45050BD0D3F8100517
:10B0900057F82420D3F81015C0F30520C1F301415F
:10B0A00002B190470134082CE7D1002EB7DABA4C30
:10B0B000B84E01254FF0A04794F960305A1C4BD090
:10B0C000C3F3C20101F110020DEB020103F007020C
:10B0D00011F808CC05FA02F21CEA020FD9B203F00B
:10B0E0003F0039D01F2800F2368103464FF0A049B7
:10B0F00009EB830205FA03F3D2F800C7D2F800E7A0
:10B100002EF4403EC2F800E704EB000ECCF3014CF5
:10B110009EF930E0D2F800A754F82E80BCF1020F5F
:10B120000CBF4FF4403E4FF4003E4EEA0A0EC2F808
:10B1300000E7C9F82035B8F1000F0DD089090329BF
:10B1400000F08C81BCF1020F00F08581BCF1030F8F
:10B1500002D1022900F0828194F96130581C4BD051
:10B16000C3F3C20101F110020DEB020103F007026B
:10B1700011F808CC05FA02F21CEA020FD9B203F06A
:10B180003F0039D01F2800F2EA8003464FF0A04963
:10B1900009EB830205FA03F3D2F800C7D2F800E7FF
:10B1A0002EF4403EC2F800E704EB000ECCF3014C55
:10B1B0009EF930E0D2F800A754F82E80BCF1020FBF
:10B1C0000CBF4FF4403E4FF4003E4EEA0A0EC2F868
:10B1D00000E7C9F82035B8F1000F0DD0890903291F
:10B1E00000F04181BCF1020F00F03A81BCF1030F85
:10B1F00002D1022900F0378194F96230591C4BD0FA
:10B20000C3F3C20101F110020DEB020103F00702CA
:10B2100011F808CC05FA02F21CEA020FD9B203F0C9
:10B220003F0039D01F2800F29E8003464FF0A0490E
:10B2300009EB830205FA03F3D2F800C7D2F800E75E
:10B240002EF4403EC2F800E704EB000ECCF3014CB4
:10B250009EF930E0D2F800A754F82E80BCF1020F1E
:10B260000CBF4FF4403E4FF4003E4EEA0A0EC2F8C7
:10B2700000E7C9F82035B8F1000F0DD0890903297E
:10B2800000F0F680BCF1020F00F0EF80BCF1030F7C
:10B2900002D1022900F0EC8094F963305A1C4AD0A4
:10B2A000C3F3C20101F110020DEB020103F007022A
:10B2B00011F808CC05FA02F21CEA020FD9B203F029
:10B2C0003F0038D01F2852D803464FF0A04909EB61
:10B2D000830205FA03F3D2F800C7D2F800E72EF490
:10B2E000403EC2F800E704EB000ECCF3014C9EF99F
:10B2F00030E0BCF1020F54F82E80D2F800E70CBF0A
:10B300004FF4403A4FF4003A4EEA0A0EC2F800E712
:10B31000C9F82035B8F1000F0DD08909032900F0D4
:10B320009880BCF1020F00F09180BCF1030F02D1B4
:10B33000022900F08E80D7F820350293C7F8203517
:10B34000D6F8202503921343C6F820257FF4B4AE27
:10B3500004B0BDE8F08703F01F03B146C8E603F070
:10B360001F03B14614E703F01F03B14660E703F083
:10B370001F03B146ABE7D3F8042350067FF543AE75
:10B380000022C3F81821D3F818310093009B46F02F
:10B39000400638E600030050643A0020D3F8042346
:10B3A00094067FF52AAE0022C3F81421D3F8143195
:10B3B0000093009B46F020061FE6D3F80423D50631
:10B3C0007FF515AE0022C3F81021D3F81031009399
:10B3D000009B46F010060AE6D3F8042317077FF512
:10B3E00000AE0022C3F80C21D3F80C310093009B6F
:10B3F00046F00806F5E5D3F8042352077FF5EBADD8
:10B400000022C3F80821D3F808310093009B46F0CE
:10B410000406E0E5D3F8042391077FF5D6AD0022BA
:10B42000C3F80421D3F804310093009B46F00206D0
:10B43000CBE5D2F8046316F001063FF4C0ADC2F8C4
:10B440000031D2F800310093009BB8E501297FF468
:10B4500072AFC0476FE701297FF47EAEC0477BE63D
:10B4600001297FF4C9AEC047C6E601297FF414AFB5
:10B47000C04711E70022C3F87C21D3F87C31019347
:10B480004FF0A042019BD2F82015064B0291C2F862
:10B490002015D3F820250392C3F82025002E3FF471
:10B4A00006AEE5E500030050014B1B68184700BFDE
:10B4B000D03A00200220FFF72DBA00BF2DE9F0415D
:10B4C00005460C46FFF748FA20B9012C1AD0022C89
:10B4D00015D00CB1BDE8F0811448FDF7A1FE144A67
:10B4E000144B94781B78A342F4D1002CF2D0124B69
:10B4F0001B68002BEED02046BDE8F04118470C4BEE
:10B500005C78F2E70A4E737834781BB9094BB2784D
:10B510001A70EAE7094F05483A464FF40041FDF733
:10B5200023FE0028F2D13D70F0E700BF3830002044
:10B53000DC3A0020D83A0020E03A0020D93A002036
:10B5400010B50078FFF708FA40B9054B587828B1D4
:10B55000044B1B6813B1BDE81040184710BD00BF75
:10B56000DC3A0020E03A002038B5BF4D2B78044685
:10B5700083B1BE4B1B7800202870002B4FD0FFF703
:10B580007FF90120FFF77CF90320FFF779F9042008
:10B59000FFF776F9172C61D8DFE814F0FE0063009E
:10B5A0006300B000BD00CA00DC001601500044007A
:10B5B00050004400920018001800180018001800ED
:10B5C000EA0098007A001D015C005C00A848FDF7C5
:10B5D00027FED4F11104054600F03081002840F028
:10B5E0002D81012C14D0C82303FB04F429464FF409
:10B5F00000434FF4FA70C4FB03014FF47A72002346
:10B6000018F0D0FF2A4601469948FDF7ADFD0546E2
:10B610000220FFF723F9954B01221A701FE0FFF774
:10B6200041F9B7E701202870FFF774F9BDE8384009
:10B63000904800224FF48041FDF796BD012028700C
:10B64000FFF768F9BDE838408A48002240F6CD414E
:10B65000FDF78ABDFFF742F9874B1C70002528468D
:10B6600038BD0020FFF7E6F8002840F0CD80FFF756
:10B67000F5F841F69A1143F23333022C18BF1946FC
:10B680007D4B1C70BDE838407A480022FDF76CBD48
:10B69000764B1B78002B00F0DB800020FFF7F0F8E2
:10B6A0000120FFF7EDF80320FFF7EAF80420FFF789
:10B6B000E7F80120FFF7D2F86F4B14221A70CDE79C
:10B6C000FFF70CF96C4B0C221A70C7E7674B1B781D
:10B6D000002B00F0BA800020FFF7D2F80120FFF71E
:10B6E000CFF80320FFF7CCF80420FFF7C9F80020BB
:10B6F000FFF7B4F8604B13221A70AFE70020FFF792
:10B7000099F8002840F09480FFF7A8F841F69A11C4
:10B71000594B0324B5E70020FFF78CF8002840F0D0
:10B720008180FFF79BF843F23331534B0424A8E7A1
:10B730000020FFF77FF8002870D1FFF78FF84E4BFD
:10B740004C4805241C70BDE83840002241F69A118F
:10B75000FDF70ABD0020FFF7DDF8474B45480624FA
:10B760001C70BDE83840002240F6CD41FDF7FCBC1E
:10B770003E4B1B78002B74D00020FFF781F801208E
:10B78000FFF77EF80320FFF77BF80420FFF778F837
:10B79000394B12221A7061E7344B1B78002B5DD0B5
:10B7A0000020FFF76DF80120FFF76AF80320FFF78C
:10B7B00067F80420FFF764F82E48FDF731FD2E4BA3
:10B7C000002205461A704AE70020FFF747F82A4B87
:10B7D00007221A7042E7254B1B78E3B30020FFF7DE
:10B7E0004FF80120FFF74CF80320FFF749F8042039
:10B7F000FFF746F80020FFF731F80120FFF72EF899
:10B800001D4B15221A7029E70020FFF739F8022C8A
:10B810004EF2666118BF4FF4003131E70020FFF7A8
:10B820002FF88CE70020FFF72BF84FF400317CE76E
:10B830000020FFF725F846F2666169E70220FFF76E
:10B840001FF80A4B00221A7009E7FFF72BF84EE7A2
:10B85000FFF728F82DE7FFF725F8CBE7FFF722F8E9
:10B86000AAE7FFF71FF893E7EC3A0020E43A00203C
:10B870005830002078300020ED3A0020044B1B683F
:10B88000DB0700D47047034B1878FFF76DBE00BF8D
:10B89000E83A0020ED3A002008B100207047FFF799
:10B8A00053B800BF044B1B6813F0010301D11846C5
:10B8B0007047FFF759BE00BFE83A002038B5214B6A
:10B8C000214A196081070446106004D410F0010574
:10B8D00026D1284638BD1D4B1D480E21197040F257
:10B8E00066620121FDF7D4F8054630B1E207F0D5D4
:10B8F0000120FFF739F8284638BDFDF725F9054640
:10B900000028F3D10146134A1348FDF715FCE3075D
:10B910000546DED50120FFF727F8002DD9D102E03A
:10B920000120FFF721F80D4A0D480021FDF704FC26
:10B9300005460028CDD1BDE838400A4A0A48012111
:10B94000FDF7FABBE03A0020E83A0020DC3A00209C
:10B95000E84F040041B50200F04F04007DB802003A
:10B96000F84F0400B5B40200F44F040030B9012AC6
:10B9700006D0012912D0022907D051B10720704703
:10B9800001290AD002290246F7D1064B00205A703D
:10B990007047044B9A70002070470E22014B1A70BA
:10B9A000F9E700BFDC3A002008B10620704708B56F
:10B9B000FEF7D8FF1F2886BF0A4B00F01F004FF08C
:10B9C000A04303EB80030020D3F8002722F4403289
:10B9D000C3F80027D3F8002742F40032C3F8002749
:10B9E00008BD00BF0003005010B50388102B07D01E
:10B9F000112B04D1254B18680138186030B110BDE7
:10BA0000224C216811B30131216010BD01220221B5
:10BA1000FFF7ACFF40B1072806D01D4B1B68002B79
:10BA2000EDD0BDE810401847072202210120FFF7A2
:10BA30009DFF08B10728F0D100210A220846FFF730
:10BA400095FF0028DBD00728D9D0E6E70122084679
:10BA5000FFF78CFF38B1072805D00D4B1B6803B1E9
:10BA600098472168CFE7072202210120FFF77EFFD8
:10BA700008B10728F1D1042202210020FFF776FF48
:10BA80000028EED00728ECD0E7E700BFF03A00200E
:10BA9000F43A002008B50020FFF786FF10B1062811
:10BAA00000D008BD0120FFF77FFF0028F9D006284D
:10BAB00008BF002008BD00BF184B10B5186031B199
:10BAC00001200C46FFF7E8FEF8B102232370144B67
:10BAD000186808B1002010BD01220221FFF746FFBF
:10BAE00008B10728F7D1072202210120FFF73EFF06
:10BAF00008B10728EFD100210A220846FFF736FFD8
:10BB00000028E7D00728E5D010BDFFF7C5FE10B12B
:10BB10000B232370DBE72070D9E700BFF43A002045
:10BB2000F03A002076DF704778DF70477ADF7047A1
:10BB30007CDF70478FDF704767DF704733DF704708
:10BB400041DF704770B5134B4A881B88124C9A42EC
:10BB500005460CD0114BE41AE40824042B886A88AB
:10BB60000F4944F00400BDE87040FCF70BBA0A88A6
:10BB700040F677239A42EDD1084A8B880949A41AE6
:10BB8000E408033B9BB224041A4644F00300FCF78C
:10BB9000F9F9E3E7C8300020B4A704008CA704003B
:10BBA00018500400FC4F0400FCF7E4BF30B5044615
:10BBB00087B008F0FFFB2288A2F11003462B72D851
:10BBC000DFE813F0A600C400710071007100E2000C
:10BBD0007100FB0099004700710071007100710055
:10BBE00071007100710083007100710071007100BB
:10BBF00071007100710071007100710071007100BD
:10BC000071007100710071007100710071007100AC
:10BC1000710071007100710071006A0071007100A3
:10BC2000710071007100710071007100710071008C
:10BC3000710071007100710071007100710071007C
:10BC4000710071007100710071007100710071006C
:10BC50006A005F4B5F4D617BA27AED1A637A0291B5
:10BC6000217BC2F3C002CDE90021ED082D0445F08F
:10BC70000305C3F38003227A57492846FBF7C0FE29
:10BC8000228856492846FCF761FA237A892B08D185
:10BC900053492846FCF738FBA0881321FFF742FFE1
:10BCA00070B907B030BD4A4B4A484E49C01AC00867
:10BCB000000440F0030007B0BDE83040FCF746BA8E
:10BCC00007B0BDE83040FCF755BF424D404BED1A80
:10BCD000ED082D04444945F00400FCF715FB002352
:10BCE000A088ADF8103004A9FFF724FF0028D8D0B1
:10BCF000FCF740FFD5E73748354B3C49C01AC00830
:10BD0000000440F0030007B0BDE83040FCF7FCBA87
:10BD10002F4B304D3649ED1AED082D0445F0030048
:10BD2000FCF7F2FA334B4FF6FF7207201A80FFF749
:10BD3000B9FD002845D1304BA1883048198003F067
:10BD4000BFFB0028C6D0FCF715FFC3E7204B214CF2
:10BD5000284D2B49E41AE408240444F00300FCF7BE
:10BD6000D3FA2888244A4FF6FF739842138098D05C
:10BD700007F0AAFC40BB234944F00400FCF7C4FAD6
:10BD80004FF6FF732B808CE704F10801062204A80C
:10BD900013F07CFA002304A88DF81630FBF7DAFBC9
:10BDA0000C4B194902460A481B1ADB081B0443F0D6
:10BDB0000300FCF7CBF907B030BD0648044B13492C
:10BDC0009CE7FCF7D7FEB6E7FCF7D4FED3E700BF4D
:10BDD0008CA70400B4A70400EC50040044510400F4
:10BDE0005C510400785104008C500400CC500400D5
:10BDF00080500400CA300020C83000204C51002080
:10BE00005450040064500400A0500400AC500400DE
:10BE10000BF056BF08B5037803B108BD054B3B21B5
:10BE20001888FFF77FFE0028F7D0BDE80840FCF730
:10BE3000A1BE00BFC83000204368EBB90378012BD6
:10BE40000ED0022B00D07047104A11498368891A1E
:10BE5000C9080904026941F003000E49FCF792B8D1
:10BE60000A4A0B498368891AC9080904026941F022
:10BE700003000949FCF786B80548044B0749C01A76
:10BE8000C008000440F00300FCF73EBA8CA7040091
:10BE9000B4A7040008520400D451040090510400D7
:10BEA00008B52B20FFF76EF870B10F4A0F491368E1
:10BEB00001331360D1F810350D4A13F4805F136815
:10BEC0000ED1013B136008BD0A4A084913680133CB
:10BED0001360D1F81035064A13F4805F1368F0D16F
:10BEE0000133136008BD00BFC43C002000030050B4
:10BEF000BC4C0020C03C002008B52220FFF742F8CF
:10BF0000094B0A4AD3F8103530B113F0020F136809
:10BF100006D1013B136008BD13F0020F1368F8D17E
:10BF20000133136008BD00BF00030050B84C00206F
:10BF3000072808B51CD00A280ED0042800D008BD58
:10BF4000154B13211888FFF7EDFD30F00803F6D0EC
:10BF5000BDE80840FCF70EBE0020FFF7A3FCB8B90F
:10BF6000FFF798FD88B9FFF7E9FD0028F0D108BD7B
:10BF7000094A12884FF6FF739A42E0D1074802F04F
:10BF8000DFFB30F00803E3D1D9E7FCF7F3FDEAE784
:10BF9000FCF7F0FDE4E700BFC8300020184D00209A
:10BFA00070B506788EB00EB10EB070BD114B124D4B
:10BFB0001249ED1AED082D04044645F00405284603
:10BFC000FCF7A2F9A28A21692846FBF719FCA58A89
:10BFD00021692A4601A814F081FA05F138036B445F
:10BFE000691C074A03F8346C89B201A8FCF730FEDB
:10BFF0000EB070BD8CA70400B4A70400405204002A
:10C00000E1D50200FCF7B6BD30B5044685B007F0B7
:10C010008DFC204608F0A6F9204607F045FE227860
:10C02000D31E0A2B07D8DFE803F03E28061B0606BE
:10C030000606060613003D4B3D483E49C01AC0089F
:10C04000000440F0030005B0BDE83040FCF77EB8C6
:10C050003948032102F028FB00285ED105B030BD2D
:10C06000324B33483549C01AC008000440F0030081
:10C0700005B0BDE83040FCF747B92C4B2C48304C9C
:10C080003049C01AC008000440F00300FCF73CF936
:10C090002D49208807F006FB00283BD14FF6FF739F
:10C0A000238005B030BD214B214D2849ED1AED0804
:10C0B0002D0445F003052846FCF726F9608803A9FE
:10C0C00007F0E6FA18BB9DF80C305B0712D41C4C45
:10C0D0001F492846FCF718F91B49208807F0E2FAA7
:10C0E00000BB20881321FFF71DFD0028B6D0FCF708
:10C0F00041FDB3E7608802F079FD0246207A63884B
:10C10000144900902846FBF75BFE05B030BDFCF7F4
:10C1100031FDD8E7FCF72EFDC0E705B0BDE83040A3
:10C12000FCF728BDFCF726FDDBE700BF8CA7040069
:10C13000B4A704003C530400184D00201C53040015
:10C14000C8300020F8520400CA30002074520400A5
:10C15000CC5204009452040008B580B103280DD1DC
:10C16000124B13481349C01AC008000440F00300E2
:10C17000FCF7CAF80220FFF795FB50B908BDFFF79E
:10C1800091FB50B9FFF786FC68B9FFF7D7FC002890
:10C19000F4D0BDE80840FCF7EDBCFCF7EBFCFFF782
:10C1A00079FC0028F1D0FCF7E5FCEEE78CA7040051
:10C1B000B4A7040054530400037803B170472DE979
:10C1C000F043012185B0044640680BF01DFD0028B6
:10C1D00066D1364B364D374E37493268ED1AED0889
:10C1E0002D0445F003052846FBF7B0FF636833498B
:10C1F000B3F900202846FBF7A9FF6268304BB2F97B
:10C20000002093ED0B7ADFED2F6A33682E4D2F4C13
:10C2100007EE902AB8EE477AF8EEE77A013367EE38
:10C22000877A336087EEA67A2B68012B84ED007A3B
:10C2300004D0022B2FD005B0BDE8F083244B254A53
:10C240001B68126824492548DFF8A080234F244E3C
:10C25000DFF89C90CDE90032224B21600022224978
:10C2600013F0EAFF1D4814F0CBF8ADF80E00B8F853
:10C2700000300DF10E023946304603F0B9FA0828B5
:10C2800007D0132803D829FA00F3DB070BD4FCF7F7
:10C2900071FC02232B60104B236005B0BDE8F083D6
:10C2A000FCF768FC95E71328E1D0F2E78CA70400BF
:10C2B000B4A70400AC3C002068530400E467040009
:10C2C000E04C00208096184BDC4C0020A43000206D
:10C2D000BC4C0020B84C00200000C8426C4C002030
:10C2E000103100200000594080530400C830002065
:10C2F0002100080008B50B490B4802F033FF28B9AC
:10C300000948F72102F046FF40B908BDFCF732FCAE
:10C310000548F72102F03EFF0028F6D0BDE80840AE
:10C32000FCF728BC45BB0200585100202DE9F04124
:10C33000AB4C237882B00A2B1ED8DFE813F06C00D8
:10C34000A800AA00FD001C0138010B007B011D00A4
:10C350001D002000A34BA44D1B68A869C01A12F051
:10C36000F1FEB0F57A7FC0F2AF81A04B1B68B3F548
:10C37000FA6F01D90A23237002B0BDE8F0819C4C0A
:10C380004FF0A0434FF400504FF400014FF400125F
:10C390004FF480464FF48075C4F80865C4F808056A
:10C3A000C3F80815C3F80825C4F80C55C4F8086587
:10C3B000C4F80C058F48C3F80815C3F80C254FF0D6
:10C3C000641202608C498D480223012203F082FE30
:10C3D0008B48C4F80855FCF723FF002840F0808103
:10C3E0008048884A8849804B002404601460874A4A
:10C3F0000C7001A886491C63C3E90644147013F04D
:10C40000A1FF844A022101A8FCF722FC824B1C7088
:10C4100002B0BDE8F081744A8048926902608048A9
:10C42000734B724D02604FF4804600224FF48070CF
:10C430002A604FF0A041C3F80C05C3F808654FF41B
:10C440000056C3F80C656B484FF40003C1F808357B
:10C450004FF40013C1F80C350260022366496748A7
:10C46000012203F037FE012323702B68142B83D99C
:10C470005C4A6C4B126863491A606B4B096819601F
:10C48000002202232A60237002B0BDE8F081574DDC
:10C49000EBE7564A65481368654900FB03F3B1EBC7
:10C4A000B30FFFF469AF1368B3F5FA6F3FF662AFED
:10C4B0004C4E5C4D33682868C01A12F043FE0928C0
:10C4C00040F33881DFF83C81574FD8F800303868A6
:10C4D000C01A12F037FE092828DC2378DFF814C1CF
:10C4E0004648032B424B4FF48071C3F80C154FF4B0
:10C4F0008041C3F808154FF0A0424FF40051C3F833
:10C500000C154FF40003C2F808354FF400133A49F4
:10C51000C2F80C3500F055814FF4C803CCF8003058
:10C520000122022303F0D6FD042323703268D8F8D9
:10C5300000302A603B601FE72C4A3C4813683C49A6
:10C5400000FB03F3B1EBB30FFFF416AF1368B3F5C1
:10C55000FA6F3FF60FAFDFF8AC80334FD8F80030FA
:10C560003868C01A12F0EEFD092840F30681D8F8A9
:10C5700000303B6000E71D4A2C4813682C4900FB43
:10C5800003F3B1EBB30FFFF4F7AE1368B3F5FA6F33
:10C590003FF6F0AE134E234D33682868C01A12F0F0
:10C5A000D1FD092840F3A28033682B60E4E61B49E3
:10C5B0000D4B1B4A0968126899611349DA6101231E
:10C5C0000B70084D094A0F4806230021237042F6DC
:10C5D000E0632B600360116002B0BDE8F08100BF32
:10C5E000154D0020BC4C0020E04C0020D84C002011
:10C5F00000030050A43C00204C5504009C30002057
:10C60000F0300020B84C0020C84C0020144D002011
:10C6100098530400E1D50200164D0020BC3C0020D8
:10C62000B83C0020A44C0020A04C0020CDCCCCCCA9
:10C63000CCCCCC0C684B1B68B3F5967F7FF69CAED8
:10C64000664C4FF0A0434FF400504FF400014FF4FC
:10C6500000124FF480464FF48075C4F80865C4F8A2
:10C660000805C3F80815C3F80825C4F80C55C4F824
:10C670000865C4F80C055A48C3F80815C3F80C251A
:10C680004FF064120260574957480223012203F019
:10C6900021FD5648C4F80855FCF7C2FD18BB5449A3
:10C6A000544B554A00240C7001A854491C70146363
:10C6B00013F048FE524A022101A8FCF7C9FA514A78
:10C6C000514B14601C7057E6504BE8691B68C01A48
:10C6D00012F038FDB0F57A7FBCBF0723237044E623
:10C6E000FCF748FA7CE6FCF745FAD8E73B4B3D49B6
:10C6F0003D484FF48072C3F80C254FF48042C3F8D4
:10C7000008254FF40052C3F80C254FF0A0434FF416
:10C710000002C3F808254FF40012C3F80C25304B73
:10C720004FF064121A600223012203F0D3FC0523A8
:10C73000237039E7294B2B492B484FF48072C3F8FB
:10C740000C254FF48042C3F808254FF40052C3F87B
:10C750000C254FF0A0434FF40002C3F808254FF416
:10C760000012C3F80C251E4B64221A60022301221A
:10C7700003F0B0FC03232370A4E6184B19491A48B0
:10C780004FF48072C3F80C254FF48042C3F808259B
:10C790004FF40052C3F80C254FF0A0434FF40002B1
:10C7A000C3F808254FF40012C3F80C250C4B4FF0CA
:10C7B00064121A600223012203F08CFC052323700B
:10C7C000D5E64FF06413CCF800300122022303F0C9
:10C7D00081FC05232370A9E6D84C002000030050FB
:10C7E000A43C00204C5504009C300020F030002078
:10C7F000C84C0020144D0020E04C0020945304004D
:10C80000E1D50200DC4C0020164D0020B84C002081
:10C8100070B5684C237882B0052B09D8DFE803F0A7
:10C8200003089742490A644A0021022311602370D9
:10C8300002B070BD604B1B681E2BF9D95F4C4FF0E6
:10C84000A0434FF400504FF400014FF400124FF496
:10C8500080464FF48075C4F80865C4F80805C3F82D
:10C860000815C3F80825C4F80C55C4F80865C4F8C1
:10C870000C055348C3F80815C3F80C254FF0641293
:10C880000260504950480223012203F023FC4F4824
:10C89000C4F80855FCF7C4FC002840F084804C4BD9
:10C8A0004C4946E0444B1B681E2BC1D9042323701E
:10C8B000BEE7494B494D1B68A869C01A12F042FCFB
:10C8C000092854DD3C4B1B68B3F57A7FB0D93B4C4B
:10C8D0004FF0A0434FF400504FF400014FF400120A
:10C8E0004FF480464FF48075C4F80865C4F8080515
:10C8F000C3F80815C3F80825C4F80C55C4F8086532
:10C90000C4F80C052E48C3F80815C3F80C254FF0E1
:10C91000641202602B492C480223012203F0DAFB47
:10C920002A48C4F80855FCF77BFC00283ED1284B68
:10C930002B49002401A81C7013F004FD294A022190
:10C9400001A8FCF785F9284B1C7002B070BD224B82
:10C95000224D1B68A869C01A12F0F4FB092814DDE7
:10C96000154B1B68B3F5FA6F7FF662AFAFE71F4B4D
:10C97000E8691B68C01A12F0E5FB0928A2DC0E4A20
:10C98000002105231160237052E7184BE8691B68EA
:10C99000C01A12F0D7FB0928E2DC074B0321002262
:10C9A00021701A6044E7FCF7E5F878E7FCF7E2F855
:10C9B000BDE700BF154D0020D84C002000030050FB
:10C9C000A43C00204C5504009C300020F030002096
:10C9D000C84C002094530400BC4C0020E04C0020C4
:10C9E00098530400E1D50200164D0020B84C0020F9
:10C9F0001A4A1378012B03D0022B15D063B170476C
:10CA0000174B18481B68184900FB03F3B1EBF30FF1
:10CA1000F5D30023137070471148144903600B6865
:10CA200043B9022313707047114B0020012110708D
:10CA30001970704710B40F4C0F482368002B14BFB7
:10CA400000234FF47A732360C0E906330B68012496
:10CA5000013B14700B605DF8044B7047154D0020CE
:10CA6000D84C0020295C8FC214AE4701D44C002062
:10CA7000164D0020B43C0020E04C0020F8B5754A6B
:10CA8000754E1368754D7649764C013313602868EE
:10CA9000B369C21A0B680860C01AB368316800FB3A
:10CAA00003F301FB0233236012F04CFB236803EB1A
:10CAB000D3735B105B42236015282368B5BF6422E3
:10CAC0003C226FF063016FF03B01934240F38B8097
:10CAD0002260654A65491068F3690F680860C21AE8
